:100000000A128A11E32F00308A000408840A82074A
:10001000003454347234613469346E3420347334AF
:1000200074346F3470347034653464342034613423
:100030007334203474346834653420347434723446
:10004000613463346B3420346934733420346E3457
:100050006F347434203463346C34653461347234F6
:1000600021340D340A340034543472346134693428
:100070006E342034633472346F34733473346934BF
:100080006E3467342C342034623465342034613467
:100090006C346534723474342E342E340D340A3496
:1000A00000344E346F342034743468347234653420
:1000B00061347434203464346534743465346334A6
:1000C0007434653464342E342E340D340A340034E0
:1000D00041347034703472346F34783469346D3430
:1000E00061347434653420347434683465342034B5
:1000F0005434613467340D340A3400340D340A3416
:100100004134633463346534733473342034473496
:10011000723461346E3474346534643421340D3493
:100120000A340034413463346334653473347334D3
:100130002034443465346E34693465346434213495
:060140000D340A34003406
:100B1E0083160313870183120313870108006400F1
:100B2E008001840A0406031900340406972DFF3051
:100B3E008316031385004130831203139F00803008
:100B4E00831603139F0008008316031387172430A0
:100B5E0098009030831203139800193083160313F4
:100B6E009900080083120313071687128710871542
:100B7E0049300A128A115E260A128A110A128A1145
:100B8E001326080083120313871607128711871482
:100B9E002C300A128A115E260A128A110A128A1142
:100BAE002A2608007E088A007F088200D9250A12AC
:100BBE008A118000840A04087D0603190034FF0A96
:100BCE000319FE0ADD2D30343034303434343234EF
:100BDE00373434343434383432340034003400345E
:100BEE0000340034003400340034003400348312F6
:100BFE000313871607128715871001300A128A1100
:100C0E005E260A128A110A128A112A260A128A11DD
:100C1E000A128A1142260800831203130715F930AF
:100C2E00F0000000F00B182E1C2E00008312031390
:100C3E0007111930F100AB30F000F00B242EF10B40
:100C4E00242E292E08008312031307150330F100FA
:100C5E009730F000F00B312EF10B312E362E831221
:100C6E00031307111830F1005F30F000F00B3D2E2A
:100C7E00F10B3D2E08008312031307140230F2000D
:100C8E008630F1009930F000F00B4B2EF10B4B2E0D
:100C9E00F20B4B2E8312031307108230F100DD305E
:100CAE00F000F00B582EF10B582E5D2E0800F200BE
:100CBE00F001F1017008720784000A128A110320F4
:100CCE000A128A11003A031908007008720784008C
:100CDE000A128A1103200A128A1183120313990031
:100CEE0083160313981C772E0130F0070318F10AB0
:100CFE000030F107612EF5008C2E0130F2007208E3
:100D0E00F5070130F2007208F007750884008313AE
:100D1E000008F200700884000003FF3A7207F30027
:100D2E007308F4007408031DA12E750884000008D2
:100D3E00031D842E7408F000F101F01BF10308006E
:100D4E00F400F201F301831203138C1EAA2E1A086B
:100D5E00F00072087407F1007108840070088313A4
:100D6E00800072087407F000700884000A300006D4
:100D7E000319CA2E72087407F000700884000D3033
:100D8E000006031DD12E72087407F000700884004F
:100D9E00800108000130F2070318F30A0030F30750
:100DAE00AA2EE62E4130E22E4930E22E5130E22EAE
:100DBE005930E22E6130831203139F00FC2E71080E
:100DCE00003A0319EB2EFC2E7008003A0319D92EA7
:100DDE00013A0319DB2E033A0319DD2E013A0319EA
:100DEE00DF2E073A0319E12EFC2E831203131F1573
:100DFE001F19FF2E1E08F300831603131E08F200A0
:100E0E007308F1007208F00008000A128A118F258B
:100E1E000A128A110A128A11AB250A128A110A12B3
:100E2E008A119E250A128A118230F700DD30F600F3
:100E3E00F60B1F2FF70B1F2F242F831203133408CB
:100E4E003504031D652F60300A128A115E260A12C0
:100E5E008A1136300A128A11A7260A128A114A30CE
:100E6E00F6007608F00036300A128A1182260A122F
:100E7E008A1170087104031D4B2F01308312031366
:100E8E00B4000030B500D92F8A300A128A115E26BE
:100E9E000A128A11831203131A08F6007608FD004F
:100EAE000630F8001330F700B130F600F60B5D2F68
:100EBE00F70B5D2FF80B5D2F642FD92F76300A12AA
:100ECE008A115E260A128A117C2F7C08803AFF0056
:100EDE0080307F02031D752F64307B020318A12F13
:100EEE000A128A11FE250A128A110130F000003012
:100EFE00F1000A128A11D8260A128A117108FA0014
:100F0E007008F9000230F0000030F1000A128A1168
:100F1E00D8260A128A117108FC007008FB007A08A4
:100F2E00803AFF0080307F02031D9F2F64307902CC
:100F3E00031C6C2F7A08803AFF0080307F02031D5D
:100F4E00AA2F643079020318B72F7C08803AFF006D
:100F5E0080307F02031DB52F64307B020318CD2F26
:100F6E007C08803AFF0080307F02031DC02F643062
:100F7E007B020318D32F7A08803AFF0080307F025D
:100F8E00031DCB2F64307902031CD32F0A128A1152
:100F9E00C9250A128A117C2F0A128A11B9250A1242
:100FAE008A117C2F1A30F700F830F600F60BDD2F81
:100FBE00F70BDD2F0000242FF901FA01FB01FC01D4
:100FCE00FD018313203084004A300A128A119625BF
:100FDE000A128A115E30FD000530FE00EA30FF0075
:100FEE004A3084000A128A11DD2583010A128A1101
:020FFE000C2FB6
:02400E0039FF78
:00000001FF
